:020000040800F2
:1000000000000220551B0008211A0008231A0008CE
:10001000251A0008271A0008291A00080000000005
:100020000000000000000000000000002B1A000883
:100030002D1A0008000000002F1A0008311A0008CD
:10004000A51B0008A51B0008A51B0008A51B000890
:10005000A51B0008A51B0008A51B0008A51B000880
:10006000A51B0008A51B0008A51B0008A51B000870
:10007000A51B0008A51B0008A51B0008A51B000860
:10008000A51B0008A51B0008A51B0008A51B000850
:10009000A51B0008A51B0008A51B0008A51B000840
:1000A000A51B0008A51B0008A51B0008A51B000830
:1000B000A51B0008A51B0008A51B0008A51B000820
:1000C000A51B0008A51B0008A51B0008A51B000810
:1000D000A51B0008A51B0008A51B0008A51B000800
:1000E000A51B0008A51B0008A51B0008A51B0008F0
:1000F000A51B0008A51B0008A51B0008A51B0008E0
:10010000A51B0008A51B0008A51B0008A51B0008CF
:10011000A51B0008A51B0008A51B0008A51B0008BF
:10012000A51B0008A51B0008A51B0008A51B0008AF
:10013000A51B0008A51B0008A51B0008A51B00089F
:10014000A51B0008A51B0008A51B0008A51B00088F
:10015000A51B0008A51B0008A51B0008A51B00087F
:10016000A51B0008A51B0008A51B0008A51B00086F
:10017000A51B0008A51B0008A51B00080000000027
:08018000A51B0008A51B0008E7
:1001880010B5054C237833B9044B13B10448AFF3C9
:1001980000800123237010BD0C0000200000000027
:1001A800001C000808B5034B1BB103490348AFF313
:1001B800008008BD0000000010000020001C00089E
:1001C800034613F8012B002AFBD1181A013870478F
:1001D80053B94AB9002908BF00281CBF4FF0FF31A6
:1001E8004FF0FF3000F07AB9ADF1080C6DE904CE9C
:1001F80000F006F8DDF804E0DDE9022304B07047FA
:100208002DE9F0478C460D460446089E002B51D137
:100218008A4217466DD9B2FA82FEBEF1000F0BD0A2
:10022800CEF1200C01FA0EF520FA0CFC02FA0EF7BA
:100238004CEA050C00FA0EF44FEA174A250CBCFBF1
:10024800FAF81FFA87F90AFB18CC45EA0C4508FBAF
:1002580009F3AB420AD9ED1908F1FF3280F0238186
:10026800AB4240F22081A8F102083D44ED1AA4B245
:10027800B5FBFAF00AFB105544EA054400FB09F9FE
:10028800A14509D9E41900F1FF3380F00A81A1459D
:1002980040F2078102383C44A4EB090440EA0840D4
:1002A8000021002E61D024FA0EF40023346073601C
:1002B800BDE8F0878B4207D9002E54D0002186E88C
:1002C80021000846BDE8F087B3FA83F1002940F021
:1002D8008E80AB4202D3824200F2FA80841A65EB28
:1002E80003050120AC46002E3FD086E81010BDE87B
:1002F800F08712B90127B7FBF2F7B7FA87FEBEF10C
:10030800000F34D1EB1B3A0C1FFA87FC0121B3FB19
:10031800F2F8250C02FB183345EA03450CFB08F3F9
:10032800AB4207D9ED1908F1FF3002D2AB4200F217
:10033800D1808046ED1AA3B2B5FBF2F002FB10554E
:1003480043EA05440CFB00FCA44507D9E41900F175
:10035800FF3302D2A44500F2B8801846A4EB0C047F
:1003680040EA08409DE731463046BDE8F087CEF1C7
:10037800200405FA0EF307FA0EF720FA04F83A0CEF
:1003880025FA04F448EA0308B4FBF2F14FEA1845E9
:1003980002FB11441FFA87FC45EA044501FB0CF3F4
:1003A800AB4200FA0EF409D9ED1901F1FF3080F0E3
:1003B8008A80AB4240F2878002393D44EB1A1FFA2B
:1003C80088F5B3FBF2F002FB103345EA034500FB66
:1003D8000CF3AB4207D9ED1900F1FF386FD2AB42ED
:1003E8006DD902383D44EB1A40EA01418FE7C1F16B
:1003F800200722FA07F88B4005FA01F448EA0303BC
:1004080020FA07FE4FEA134CFD404EEA040EB5FBF6
:10041800FCF94FEA1E440CFB19551FFA83F844EA0D
:10042800054509FB08F4AC4202FA01F200FA01FAA8
:1004380008D9ED1809F1FF3043D2AC4241D9A9F1EE
:1004480002091D442D1B1FFA8EFEB5FBFCF00CFBA8
:1004580010554EEA054400FB08F8A04507D9E418F2
:1004680000F1FF3529D2A04527D902381C4440EABB
:100478000940A4EB0804A0FB02894C45C6464D463A
:1004880015D312D056B1BAEB0E0364EB050404FA87
:1004980007F7CB401F43CC40376074600021BDE8AC
:1004A800F0871846F8E69046E0E6C245EAD2B8EB8F
:1004B800020E69EB03050138E4E72846D7E7404612
:1004C80091E78146BEE7014678E702383C4445E7B4
:1004D800084608E7A8F102083D442BE7704700BF2B
:1004E80038B50E4A0E4B054618784FF47A73B3FBAD
:1004F800F0F31068B0FBF3F000F088F8044658B940
:100508000F2D09D8024629464FF0FF3000F04AF86F
:10051800044B20461D6038BD012038BD080000206E
:10052800000000200400002008B50B4B1A6842F4B4
:1005380000721A601A6842F480621A601A6842F4FB
:1005480080721A60032000F01BF80020FFF7C8FF34
:1005580001F046FA002008BD003C0240034A044B63
:1005680011681B780B441360704700BF28000020F7
:1005780000000020014B1868704700BF28000020C9
:10058800074AD36823F4E0631B041B0C43F0BF63E2
:10059800000243F4003300F4E0600343D360704783
:1005A80000ED00E0174B30B5DC68C4F30224C4F159
:1005B8000703251D042B28BF0423062D4FF0010532
:1005C80005FA03F303F1FF338CBF033C0024194001
:1005D800A14005FA04F4013C2240002842EA010245
:1005E8004FEA0212ADBF00F1604000F00F00064B69
:1005F80000F56140B5BFD2B2D2B21A5480F80023D8
:1006080030BD00BF00ED00E014ED00E00138B0F1AE
:10061800807F0AD2064B074A5860F02182F82310DF
:100628000020072298601A6070470120704700BFB9
:1006380010E000E000ED00E02DE9F04F85B00B6818
:10064800DFF8AC81684ADFF8AC91019300234FF0E2
:10065800010E019C0EFA03FE0EEA0406B64540F0B0
:10066800AE804C6824F01007022F16D14FEAD30A47
:1006780000EB8A0A03F0070BDAF820504FEA8B0BDD
:100688004FF00F0C0CFA0BFC25EA0C0C0D6905FA5F
:100698000BF545EA0C05CAF820504FEA430A032532
:1006A800D0F800B005FA0AF5ED4304F0030C0BEAA4
:1006B800050B0CFA0AFC013F4CEA0B0C012FC0F8A1
:1006C80000C011D8876807EA050BCF6807FA0AFC4B
:1006D8004CEA0B078760476827EA0E0EC4F3001739
:1006E8009F4047EA0E074760C7683D408F6807FA92
:1006F8000AF73D43C560E50061D54FF0000BCDF822
:100708000CB0D8F84470394D47F48047C8F84470A5
:10071800D8F8447007F480470397039F23F0030732
:1007280007F1804707F59C3703F0030CD7F808A0BA
:100738004FEA8C0C4FF00F0E0EFA0CFEA8422AEA74
:100748000E0E43D005F58065A84241D005F58065B9
:10075800A8423FD005F58065A8423DD005F58065E3
:10076800A8423BD048453BD005F50065A84239D0A2
:1007780005F58065A84214BF0825072505FA0CF57C
:1007880045EA0E05BD601568F74314F4803F0CBFB9
:100798003D4035431560556814F4003F0CBF3D409B
:1007A80035435560956814F4801F0CBF3D403543B0
:1007B8009560D568A40254BF3D403543D5600133E8
:1007C800102B7FF444AF05B0BDE8F08F5D46D5E748
:1007D8000125D3E70225D1E70325CFE70425CDE797
:1007E8000525CBE70625C9E7003C0140000002408B
:1007F80000380240001402400AB1816170470904C0
:10080800FBE700002DE9F341044618B9012002B0C6
:10081800BDE8F0810368DD0710D42368980758D431
:1008280023681A0700F19A8023685B0700F1B880F3
:10083800A269002A40F019810020E8E7A64B9A68CF
:1008480002F00C02042A07D09A6802F00C02082A67
:100858000AD15B68590207D59F4B1B689A03DCD500
:100868006368002BD9D1D1E763689B4DB3F5803F0E
:1008780011D12B6843F480332B60FFF77BFE964D34
:1008880006462B689B03C8D4FFF774FE801B6428B8
:10089800F7D90320BBE7B3F5A02F04D12B6843F4A5
:1008A80080232B60E5E72A6822F480322A602A68D0
:1008B80022F480222A60002BDFD1FFF75BFE064678
:1008C8002B689F03A9D5FFF755FE801B6428F7D92D
:1008D800DFE7814B9A6812F00C0F07D09A6802F094
:1008E8000C02082A11D15B685E020ED47A4B1A6892
:1008F800950702D5E268012A88D11A68216922F091
:10090800F80242EAC1021A608AE7E268734BB2B1A0
:1009180001221A60FFF72EFE6F4D06462B689807D6
:1009280007D52B68226923F0F80343EAC2032B603A
:1009380076E7FFF71FFE801B0228EFD9A9E71A60A8
:10094800FFF718FE644D06462B6899077FF568AFD8
:10095800FFF710FE801B0228F6D99AE76269604B00
:100968007AB101221A60FFF705FE5B4D06466B6FF0
:100978009F073FF559AFFFF7FDFD801B0228F6D909
:1009880087E71A60FFF7F6FD534D06466B6F980729
:100998007FF54AAFFFF7EEFD801B0228F6D978E70E
:1009A8004D4B1A6C12F0805228D101921A6C42F009
:1009B80080521A641B6C03F080530193019B01263B
:1009C800484D2B68D9051BD5A368434D012B27D16A
:1009D8002B6F43F001032B67FFF7CCFD3E4D074615
:1009E80041F288382B6F9B0739D5002E3FF420AF92
:1009F800394A136C23F08053136419E70026DFE7A4
:100A08002B6843F480732B60FFF7B4FD07462B680F
:100A1800DA05D9D4FFF7AEFDC01B0228F7D938E7AD
:100A2800052B04D12B6F43F004032B67D0E72A6F03
:100A380022F001022A672A6F22F004022A67002B9B
:100A4800CAD1FFF797FD41F2883807462B6F980700
:100A5800CBD5FFF78FFDC01B4045F7D919E7FFF746
:100A680089FDC01B4045BDD913E71B4DAB6803F09A
:100A78000C03082B3FF4CAAE1B4E0023022A336036
:100A880034D1FFF777FD07462B6899011ED4226AF7
:100A9800E3691343626A43EA8213E26A43EA026340
:100AA800A26A0D4C5208013A43EA02436B600123E3
:100AB8003360FFF75FFD054623689A013FF5BCAE3A
:100AC800FFF758FD401B0228F6D9E2E6FFF752FD72
:100AD800C01B0228D8D9DCE6003802400000474293
:100AE800800E47420070004060004742FFF742FD19
:100AF80004462B689B017FF59FAEFFF73BFD001B6B
:100B08000228F6D9C5E600BF134908B58B6803F07B
:100B18000C03042B03D0082B03D0104808BD104841
:100B280008BD4A684B68496813F4800314BF0C4831
:100B38000A48C1F3881118BF002302F03F02A1FB45
:100B48000001FFF745FB044B5B68C3F30143013326
:100B58005B00B0FBF3F008BD003802400024F4004D
:100B680000127A002DE9F0410D46044610B9012023
:100B7800BDE8F081444B1A6802F00F028A4228D37C
:100B880021688F072DD4C80740D43F4B1A6802F05C
:100B98000F02954266D3226851076CD4130707D514
:100BA8003A4A2169936823F4604343EAC103936096
:100BB800FFF7AAFF354B364A9B68C3F30313D35C90
:100BC800D840344B18600020FFF78AFC0020BDE8AD
:100BD800F081CAB21A701B6803F00F039942C6D19C
:100BE800CEE72A4B11F0040F1EBF9A6842F4E05278
:100BF8009A600E0742BF9A6842F460429A609A6807
:100C0800A06822F0F00202439A60BCE762681F4BBA
:100C1800012A1DD11B6813F4003FA8D01B4EB368EE
:100C280023F003031343B360FFF7A4FC41F28838B1
:100C38000746B368626803F00C03B3EB820FA4D0D5
:100C4800FFF798FCC01B4045F3D90320BDE8F081AD
:100C5800911E01291B6802D813F0007FDDE713F00D
:100C6800020FDAE7EAB21A701B6803F00F039D421D
:100C78007FF47DAF8FE70549E0688B6823F4E05384
:100C880003438B608AE700BF003C02400038024003
:100C9800221C000808000020F8B504460E46154638
:100CA8001F4621688A6836EA020301D00020F8BD91
:100CB8006B1CF7D0FFF75EFCC01B8542F1D8236898
:100CC8005A6822F0E0025A606268B2F5827F0AD15F
:100CD800A268B2F5004F02D0B2F5806F03D11A684E
:100CE80022F040021A60A26AB2F5005F07D11A68C2
:100CF80022F400521A601A6842F400521A60012362
:100D080084F85130002384F850300320F8BD0000E7
:100D180073B51346134A144E15684268B5FBF6F6C8
:100D28004FF47A757543B2F5827F044601950DD16B
:100D38000A468021FFF7B0FF10B9002002B070BD4D
:100D4800636D43F0200363650320F7E7019B002BE5
:100D5800F3D0019B013B019323689B681B06F5D4E4
:100D6800EBE700BF0800002000366E0110B504460E
:100D7800002836D00023836290F8513003F0FF0238
:100D88001BB980F8502000F0DFFD2168A068A26937
:100D9800022384F851300B6823F040030B6063682A
:100DA8000343E06803432069034360690343E06940
:100DB8000343206A0343A06A034302F40070034319
:100DC8000B60120C636A02F004021A434A60CB6992
:100DD80023F40063CB6100200123606584F851305F
:100DE80010BD012010BD2DE9F3411E4690F850308A
:100DF800012B04460D46904600F09B80012380F8A5
:100E08005030FFF7B7FB074694F85100C0B20128ED
:100E180040F08D80002D5DD0B8F1000F5AD003232B
:100E280084F851300020A3686065A063A4F8368078
:100E3800A087E0876064206420682563B3F5004FCD
:100E480008BF0368A4F8348004BF43F480430360F8
:100E580003685B065EBF036843F040030360E36812
:100E6800B3F5006F63683ED113B1B8F1010F07D134
:100E780035F8023BC3602563E38E013B9BB2E386F2
:100E8800E38E9BB2A3B93A4631462046FFF740FFAE
:100E9800002849D1A36833B901932368DA6801921D
:100EA8009B680193019B606D003018BF012011E021
:100EB80022689368980705D5236B33F8021BD16025
:100EC8002363D9E7FFF756FBC01BB042D8D3711C88
:100ED800D6D00320012384F85130002384F8503001
:100EE80002B0BDE8F08113B1B8F1010F08D12B7839
:100EF8000373236B01332363E38E013B9BB2E386C9
:100F0800E38E9BB2002BBED023689A68920703D564
:100F1800226B12781A73ECE7FFF72CFBC01B864292
:100F2800EED8731CECD0D4E720236365B2E7022027
:100F3800D0E70220D4E70000304A0368904212D07C
:100F4800B0F1804F0FD0A2F57C4290420BD002F551
:100F58008062904207D002F58062904203D002F589
:100F68007842904219D14A6823F070031343234A08
:100F7800904229D0B0F1804F26D0A2F57C42904211
:100F880022D002F5806290421ED002F58062904223
:100F98001AD002F57842904216D0194A904213D0DE
:100FA80002F5806290420FD002F5806290420BD029
:100FB800A2F59832904207D002F58062904203D0A1
:100FC80002F58062904203D1CA6823F44073134348
:100FD8004A6923F08003134303608B68C3620B687C
:100FE8008362064B984203D003F58063984201D18F
:100FF8000B69036301234361704700BF0000014090
:101008000040014010B50446A0B190F83D3003F00F
:10101800FF021BB980F83C2000F064FD022384F82D
:101028003D302068211DFFF787FF012384F83D30FC
:10103800002010BD012010BD10B584680A4324F4B7
:101048007F4442EA03232343836010BD00684A6853
:1010580038B583680C6823F07003134323F0070343
:101068002343502A83601ED003D8402A0BD0002087
:1010780038BD602A27D0702AF9D10B698A68C968F7
:10108800FFF7DAFFF3E7052C30D0026A036A096933
:1010980023F001030362836923F0F00343EA011399
:1010A80083610262E3E78A680D69016A046A24F0D1
:1010B80001040462836921F00A0123F0F00343EA82
:1010C80005130A43ECE78C680D69016A21F01001E9
:1010D80001628269036A22F4704223F0A00342EAA3
:1010E800053243EA041382610362C0E7012038BD78
:1010F80038B590F83C30012B04464FF002031CD061
:10110800012580F83C5080F83D30FFF79FFF30B153
:10111800002384F83D5084F83C30284638BD2368C5
:10112800DA6822F04002DA60DA6822F48042DA6093
:1011380084F83D5084F83C0038BD184638BD90F816
:101148003C30012B30B54FF0020314D0046880F80E
:101158003D306268A3680D68496822F0700223F088
:1011680080030B432A436260A360012380F83D306B
:10117800002380F83C30184630BD00002DE9F041CE
:1011880014228AB00DEB0200002100F02DFD00248E
:10119800384B00941A6BDFF8E880374D374F42F030
:1011A80080021A631A6B02F080020092009A01947E
:1011B8001A6B42F004021A631A6B02F004020192DD
:1011C800019A02941A6B42F002021A631A6B02F037
:1011D80002020292029A03941A6B42F008021A63FE
:1011E8001A6B02F008020392039A04941A6B42F0F5
:1011F80001021A631B6B03F00103049340460122AA
:101208000321049BFFF7F8FA284601224FF4806176
:10121800FFF7F2FA224638464FF40071FFF7ECFA6E
:101228000126032305A940460593069607940894CA
:10123800FFF702FA4FF4806305A92846059306963E
:1012480007940894FFF7F8F94FF4007305A9384696
:101258000593069607940894FFF7EEF97F2305A9EE
:101268002846059306940794FFF7E6F90AB0BDE807
:10127800F08100BF00380240000C0240000002402C
:101288000008024030B595B03022002108A800F0CF
:10129800ABFC0021142203A800F0A6FC00241B4B81
:1012A80001941A6C42F080521A641B6C03F080534C
:1012B8000193019B164B02941A6842F480421A600B
:1012C8001B680F9403F480430293029B01230B9342
:1012D80010230C930823109332230225119308A896
:1012E8000423139308950E951295FFF78BFA0F2395
:1012F80003938023059321464FF4E05303A80495F4
:1013080006930794FFF72EFC15B030BD0038024055
:101318000070004070B5FFF707F9FFF7B3FFFFF75C
:101328002DFF00F0EDFA00F0A7FB00F06FF8084D74
:10133800002442F20676284600F00DF820460A34CA
:101348000821A4B200F0EEF9B442F4D1F0E700BFEE
:10135800A086010070470023834200DB704700BF6E
:101368000133F9E72DE9F041274C86B0002203212B
:101378002046FFF741FA4FF47A70FFF7ECFF20465A
:1013880001220321FFF738FAA4F580641422002112
:1013980001A800F029FC012220464FF40051FFF774
:1013A8002BFA4FF40055002601A94FF00108032736
:1013B80020460195CDF8088003960497FFF73CF97D
:1013C8004FF47A70FFF7C7FF324629462046FFF7E9
:1013D80013FA4FF4FA70FFF7BEFF4246294620463B
:1013E800FFF70AFA0223029301A905232046059371
:1013F800019503960497FFF71FF94FF47A70FFF7EA
:10140800AAFF06B0BDE8F081000802402DE9F041CE
:1014180086B01422002101A800F0E6FB0022082172
:10142800BD48FFF7E9F90024012508274FF0030814
:1014380001A9B948039401970295CDF81080FFF7E8
:10144800FBF822464FF40051B448FFF7D5F94FF4A2
:10145800005601A9B148039401960295CDF8108071
:10146800FFF7EAF82A464FF40071AD48FFF7C4F9D0
:101478004FF4FA60FFF76FFF22464FF40071A84857
:10148800FFF7BAF94FF4FA70FFF765FF2A463946B5
:10149800A148FFF7B1F94FF4FA70FFF75CFF2A464D
:1014A80031469E48FFF7A8F94FF4FA70FFF753FF4B
:1014B800224631469948FFF79FF94FF4FA70FFF733
:1014C8004AFF2A4631469548FFF796F94FF4FA70D5
:1014D800FFF741FF224639468F48FFF78DF90B2465
:1014E800FFF740FF013CFBD1012208218A48FFF7A2
:1014F80083F94FF4FA70FFF72EFF01224FF40071C1
:101508008748FFF779F940F2DC50FFF724FF2246BD
:101518004FF400718248FFF76FF94FF4FA70FFF744
:101528001AFFFFF71FFF224608217B48FFF764F9DF
:101538000824FFF717FF013CFBD101220821764858
:10154800FFF75AF9FFF70EFF224608217248FFF706
:1015580053F9FFF707FFFFF705FF012208216E483F
:10156800FFF74AF94FF47A70FFF7F5FE01224FF4BE
:1015780000716B48FFF740F940F2DC50FFF7EBFED3
:1015880022464FF400716648FFF736F9FFF7EAFE86
:10159800224608216048FFF72FF90924FFF7E2FEE9
:1015A800013CFBD1012208215B48FFF725F9FFF731
:1015B800D9FE224608215848FFF71EF9FFF7D2FE48
:1015C800012208215448FFF717F901224FF400714E
:1015D8005348FFF711F940F2DC50FFF7BCFE2246F2
:1015E8004FF400714E48FFF707F9FFF7BBFE22469C
:1015F80008214948FFF700F90824FFF7B3FE013C2A
:10160800FBD1012208214448FFF7F6F8FFF7AAFEAC
:10161800FFF7A8FE224608213F48FFF7EDF8FFF73D
:10162800A1FE012208213C48FFF7E6F84FF47A7042
:10163800FFF791FE01224FF400713948FFF7DCF8FB
:1016480040F2DC50FFF787FE22464FF40071344821
:10165800FFF7D2F8FFF786FE224608212E48FFF74B
:10166800CBF8FFF77FFEFFF77DFEFFF77BFEFFF766
:1016780079FE012208212848FFF7BEF8FFF772FE1D
:10168800224608212448FFF7B7F8FFF76BFE01222E
:1016980008212148FFF7B0F8FFF764FE2246082129
:1016A8001D48FFF7A9F8FFF75DFEFFF75BFE012273
:1016B80008211948FFF7A0F8FFF754FE2246082131
:1016C8001548FFF799F8FFF74DFE01220821124847
:1016D800FFF792F801224FF400711148FFF78CF8D8
:1016E800022708230326052501A90B480193029721
:1016F800039404960595FEF79FFF4FF4005301A944
:10170800064801930297039404960595FEF794FF03
:1017180006B0BDE8F08100BF0008024000040240A6
:101728000000024042F21073B0FBF3F202FB130315
:101738002DE9F04F9BB24FF47A74B3FBF4F004FB3D
:10174800103364229BB241F01005B3FBF2F102FBA7
:101758001133674E0A22C9B2C0B29BB2B3FBF2F38F
:10176800DBB216F8019016F80380375C614E89B039
:1017780000224FF400713046FFF73EF8C820FFF70B
:10178800EAFDA02302A88DF808308DF80970FEF74D
:1017980017FD594F4FF0FF3382B202A93846FFF7C1
:1017A80022FBFFF7DFFD01224FF400713046FFF7FF
:1017B80023F82046FFF7CFFD00224FF40071304692
:1017C800FFF71AF8C820FFF7C6FDA12302A88DF875
:1017D80008308DF80990FEF7F3FC4FF0FF3382B222
:1017E80002A93846FFF7FFFAFFF7BCFD01224FF4C4
:1017F80000713046FFF700F82046FFF7ACFD0022E5
:101808004FF400713046FEF7F7FFC820FFF7A3FD3D
:10181800A22302A88DF808308DF80980FEF7D0FCC5
:101828004FF0FF3382B202A93846FFF7DCFADFF83F
:10183800CC902046FFF78FFD1422002103A800F06A
:10184800D3F9002248460821FEF7D6FF4FF00108D9
:1018580008234FF0000A03A948464FF0030B0393EF
:101868000193CDF81080CDF814A0CDF818B0FEF78C
:10187800E3FEFFF777FD42464FF400713046FEF76E
:10188800BBFF2046FFF767FD524630464FF4007114
:10189800FEF7B2FF019B0393022303A90493484672
:1018A80005230793CDF814A0CDF818B0FEF7C4FEB1
:1018B800C820FFF750FDA32302A88DF808308DF843
:1018C8000950FEF77DFC4FF0FF3382B202A938467B
:1018D800FFF789FAFFF746FD42464FF4007130469C
:1018E800FEF78AFF2046FFF736FD09B0BDE8F08F06
:1018F800181C0008000002402C00002000080240CC
:101908000F4808B502220F4B02614FF4827E012274
:1019180080E80840426100234FF400728360C3608E
:10192800826103623822436283620A23C261C3620E
:10193800FFF71CFA18B1BDE80840FFF70BBD08BD5A
:101948002C00002000380040F0B5044689B014226D
:10195800002103A800F048F922681E4B9A4237D1AB
:1019680003F50033002400941A6C1B4842F48042AB
:101978001A641A6C02F480420092009A01941A6B5D
:1019880042F004021A631A6B02F004020192019AEF
:1019980002941A6B42F002021A631B6B03F00203F3
:1019A8000293029B022708230326052503A9039314
:1019B800049706960795FEF73FFE4FF4005303A9D8
:1019C800064803930497059406960795FEF734FE98
:1019D80009B0F0BD00380040000802400004024091
:1019E80082B00C4B002100915A6C42F480425A6438
:1019F8005A6C02F480420092009A01911A6C42F0EB
:101A080080521A641B6C03F080530193019B02B04F
:101A1800704700BF003802407047FEE7FEE7FEE768
:101A2800FEE7704770477047FEF798BD0F49D1F839
:101A3800883043F47003C1F888300D4B1A680020D1
:101A480042F001021A6098601A6822F0847222F447
:101A580080321A60074A5A601A6822F480221A6093
:101A6800D8604FF000638B60704700BF00ED00E066
:101A7800003802401030002410B588B0142200212C
:101A880003A800F0B1F81548154A00230193029302
:101A980080E80C008360C360036143618361FFF7E2
:101AA800B1FA08B1FFF756FC07230024039303A9F2
:101AB80070230A480493059406940794FFF718FBCB
:101AC80008B1FFF747FC01A9044801940294FFF705
:101AD80036FB08B1FFF73EFC08B010BD84000020BB
:101AE8000000014010B5044688B01422002103A864
:101AF80000F07AF82268134B9A4221D103F59C33FF
:101B0800002101915A6C104842F001025A645A6C43
:101B180002F001020192019A02911A6B42F001024D
:101B28001A631B6B03F001030293029B4FF480536B
:101B380003930223049303A901230793FEF77CFD73
:101B480008B010BD0000014000000240DFF834D0AA
:101B5800002103E00C4B5B58435004310B480C4BFD
:101B680042189A42F6D30B4A02E0002342F8043B9B
:101B7800094B9A42F9D3FFF759FF00F011F8FFF724
:101B8800C9FB704700000220441C00080000002028
:101B98000C0000200C000020C4000020FEE700001C
:101BA80070B50D4E0D4CA41BA4100025A54209D1FB
:101BB8000B4E0C4C00F020F8A41BA4100025A542E5
:101BC80005D170BD56F8253098470135EEE756F82F
:101BD800253098470135F2E73C1C00083C1C0008FA
:101BE8003C1C0008401C000802440346934200D1F4
:101BF800704703F8011BF9E7F8B500BFF8BC08BC4B
:101C08009E467047F8B500BFF8BC08BC9E467047B2
:101C18007D056B4F175E7E0D7F5F000000000000A2
:0C1C280000000102030406070809000088
:081C3400D4E5FF7F0100000070
:041C3C00AD010008EE
:041C4000890100080E
:0C1C440001000000100000000024F4006B
:0400000508001B557F
:00000001FF
