:020000040800F2
:1000000000000220711F0008A51D0008A71D0008A0
:10001000A91D0008AB1D0008AD1D00080000000070
:10002000000000000000000000000000AF1D0008FC
:10003000B11D000800000000B31D0008B51D000838
:10004000C11F0008C11F0008C11F0008C11F000810
:10005000C11F0008C11F0008C11F0008C11F000800
:10006000C11F0008C11F0008C11F0008C11F0008F0
:10007000C11F0008C11F0008C11F0008C11F0008E0
:10008000C11F0008C11F0008C11F0008C11F0008D0
:10009000C11F0008C11F0008C11F0008C11F0008C0
:1000A000C11F0008C11F0008C11F0008C11F0008B0
:1000B000B91D0008C11F0008C11F0008C11F0008AA
:1000C000C11F0008C11F0008C11F0008C11F000890
:1000D000C11F0008C11F0008C11F0008C11F000880
:1000E000C11F0008C11F0008C11F0008C11F000870
:1000F000C11F0008C11F0008C11F0008C11F000860
:10010000C11F0008C11F0008C11F0008C11F00084F
:10011000C11F0008C11F0008C11F0008C11F00083F
:10012000C11F0008C11F0008C11F0008C11F00082F
:10013000C11F0008C11F0008C11F0008C11F00081F
:10014000C11F0008C11F0008C11F0008C11F00080F
:10015000C11F0008C11F0008C11F0008C11F0008FF
:10016000C11F0008C11F0008C11F0008C11F0008EF
:10017000C11F0008C11F0008C11F000800000000C7
:08018000C11F0008C11F0008A7
:1001880010B5054C237833B9044B13B10448AFF3C9
:1001980000800123237010BD0C0000200000000027
:1001A8001C20000808B5034B1BB103490348AFF3F3
:1001B800008008BD00000000100000201C2000087E
:1001C800034613F8012B002AFBD1181A013870478F
:1001D80053B94AB9002908BF00281CBF4FF0FF31A6
:1001E8004FF0FF3000F07AB9ADF1080C6DE904CE9C
:1001F80000F006F8DDF804E0DDE9022304B07047FA
:100208002DE9F0478C460D460446089E002B51D137
:100218008A4217466DD9B2FA82FEBEF1000F0BD0A2
:10022800CEF1200C01FA0EF520FA0CFC02FA0EF7BA
:100238004CEA050C00FA0EF44FEA174A250CBCFBF1
:10024800FAF81FFA87F90AFB18CC45EA0C4508FBAF
:1002580009F3AB420AD9ED1908F1FF3280F0238186
:10026800AB4240F22081A8F102083D44ED1AA4B245
:10027800B5FBFAF00AFB105544EA054400FB09F9FE
:10028800A14509D9E41900F1FF3380F00A81A1459D
:1002980040F2078102383C44A4EB090440EA0840D4
:1002A8000021002E61D024FA0EF40023346073601C
:1002B800BDE8F0878B4207D9002E54D0002186E88C
:1002C80021000846BDE8F087B3FA83F1002940F021
:1002D8008E80AB4202D3824200F2FA80841A65EB28
:1002E80003050120AC46002E3FD086E81010BDE87B
:1002F800F08712B90127B7FBF2F7B7FA87FEBEF10C
:10030800000F34D1EB1B3A0C1FFA87FC0121B3FB19
:10031800F2F8250C02FB183345EA03450CFB08F3F9
:10032800AB4207D9ED1908F1FF3002D2AB4200F217
:10033800D1808046ED1AA3B2B5FBF2F002FB10554E
:1003480043EA05440CFB00FCA44507D9E41900F175
:10035800FF3302D2A44500F2B8801846A4EB0C047F
:1003680040EA08409DE731463046BDE8F087CEF1C7
:10037800200405FA0EF307FA0EF720FA04F83A0CEF
:1003880025FA04F448EA0308B4FBF2F14FEA1845E9
:1003980002FB11441FFA87FC45EA044501FB0CF3F4
:1003A800AB4200FA0EF409D9ED1901F1FF3080F0E3
:1003B8008A80AB4240F2878002393D44EB1A1FFA2B
:1003C80088F5B3FBF2F002FB103345EA034500FB66
:1003D8000CF3AB4207D9ED1900F1FF386FD2AB42ED
:1003E8006DD902383D44EB1A40EA01418FE7C1F16B
:1003F800200722FA07F88B4005FA01F448EA0303BC
:1004080020FA07FE4FEA134CFD404EEA040EB5FBF6
:10041800FCF94FEA1E440CFB19551FFA83F844EA0D
:10042800054509FB08F4AC4202FA01F200FA01FAA8
:1004380008D9ED1809F1FF3043D2AC4241D9A9F1EE
:1004480002091D442D1B1FFA8EFEB5FBFCF00CFBA8
:1004580010554EEA054400FB08F8A04507D9E418F2
:1004680000F1FF3529D2A04527D902381C4440EABB
:100478000940A4EB0804A0FB02894C45C6464D463A
:1004880015D312D056B1BAEB0E0364EB050404FA87
:1004980007F7CB401F43CC40376074600021BDE8AC
:1004A800F0871846F8E69046E0E6C245EAD2B8EB8F
:1004B800020E69EB03050138E4E72846D7E7404612
:1004C80091E78146BEE7014678E702383C4445E7B4
:1004D800084608E7A8F102083D442BE7704700BF2B
:1004E80038B50E4A0E4B054618784FF47A73B3FBAD
:1004F800F0F31068B0FBF3F000F096F8044658B932
:100508000F2D09D8024629464FF0FF3000F04AF86F
:10051800044B20461D6038BD012038BD080000206E
:10052800000000200400002008B50B4B1A6842F4B4
:1005380000721A601A6842F480621A601A6842F4FB
:1005480080721A60032000F01BF80020FFF7C8FF34
:1005580001F008FC002008BD003C0240034A044B9F
:1005680011681B780B441360704700BF2C000020F3
:1005780000000020014B1868704700BF2C000020C5
:10058800074AD36823F4E0631B041B0C43F0BF63E2
:10059800000243F4003300F4E0600343D360704783
:1005A80000ED00E0174B30B5DC68C4F30224C4F159
:1005B8000703251D042B28BF0423062D4FF0010532
:1005C80005FA03F303F1FF338CBF033C0024194001
:1005D800A14005FA04F4013C2240002842EA010245
:1005E8004FEA0212ADBF00F1604000F00F00064B69
:1005F80000F56140B5BFD2B2D2B21A5480F80023D8
:1006080030BD00BF00ED00E014ED00E0002808DB7D
:100618004209012300F01F0003FA00F0014B43F8E0
:100628002200704700E100E00138B0F1807F0AD273
:10063800064B074A5860F02182F823100020072251
:1006480098601A6070470120704700BF10E000E012
:1006580000ED00E02DE9F04F85B00B68DFF8AC81C4
:10066800684ADFF8AC91019300234FF0010E019C1A
:100678000EFA03FE0EEA0406B64540F0AE804C685A
:1006880024F01007022F16D14FEAD30A00EB8A0A8A
:1006980003F0070BDAF820504FEA8B0B4FF00F0CE2
:1006A8000CFA0BFC25EA0C0C0D6905FA0BF545EA6A
:1006B8000C05CAF820504FEA430A0325D0F800B0C9
:1006C80005FA0AF5ED4304F0030C0BEA050B0CFAE6
:1006D8000AFC013F4CEA0B0C012FC0F800C011D8EE
:1006E800876807EA050BCF6807FA0AFC4CEA0B078C
:1006F8008760476827EA0E0EC4F300179F4047EA51
:100708000E074760C7683D408F6807FA0AF73D4300
:10071800C560E50061D54FF0000BCDF80CB0D8F8F6
:100728004470394D47F48047C8F84470D8F844708D
:1007380007F480470397039F23F0030707F18047D7
:1007480007F59C3703F0030CD7F808A04FEA8C0C88
:100758004FF00F0E0EFA0CFEA8422AEA0E0E43D0F6
:1007680005F58065A84241D005F58065A8423FD0CF
:1007780005F58065A8423DD005F58065A8423BD0C7
:1007880048453BD005F50065A84239D005F5806598
:10079800A84214BF0825072505FA0CF545EA0E05F9
:1007A800BD601568F74314F4803F0CBF3D403543E6
:1007B8001560556814F4003F0CBF3D403543556043
:1007C800956814F4801F0CBF3D4035439560D5688B
:1007D800A40254BF3D403543D5600133102B7FF44C
:1007E80044AF05B0BDE8F08F5D46D5E70125D3E7F6
:1007F8000225D1E70325CFE70425CDE70525CBE77B
:100808000625C9E7003C01400000024000380240CC
:10081800001402400AB1816170470904FBE7000037
:100828002DE9F341044618B9012002B0BDE8F08172
:100838000368DD0710D42368980758D423681A077B
:1008480000F19A8023685B0700F1B880A269002A4A
:1008580040F019810020E8E7A64B9A6802F00C02E4
:10086800042A07D09A6802F00C02082A0AD15B68A9
:10087800590207D59F4B1B689A03DCD56368002B88
:10088800D9D1D1E763689B4DB3F5803F11D12B686F
:1008980043F480332B60FFF76DFE964D06462B68B8
:1008A8009B03C8D4FFF766FE801B6428F7D9032092
:1008B800BBE7B3F5A02F04D12B6843F480232B604A
:1008C800E5E72A6822F480322A602A6822F4802226
:1008D8002A60002BDFD1FFF74DFE06462B689F03E9
:1008E800A9D5FFF747FE801B6428F7D9DFE7814BBE
:1008F8009A6812F00C0F07D09A6802F00C02082AC6
:1009080011D15B685E020ED47A4B1A68950702D53E
:10091800E268012A88D11A68216922F0F80242EABD
:10092800C1021A608AE7E268734BB2B101221A6009
:10093800FFF720FE6F4D06462B68980707D52B68F2
:10094800226923F0F80343EAC2032B6076E7FFF736
:1009580011FE801B0228EFD9A9E71A60FFF70AFEEB
:10096800644D06462B6899077FF568AFFFF702FECE
:10097800801B0228F6D99AE76269604B7AB1012296
:100988001A60FFF7F7FD5B4D06466B6F9F073FF553
:1009980059AFFFF7EFFD801B0228F6D987E71A60E9
:1009A800FFF7E8FD534D06466B6F98077FF54AAF92
:1009B800FFF7E0FD801B0228F6D978E74D4B1A6C4B
:1009C80012F0805228D101921A6C42F080521A64B7
:1009D8001B6C03F080530193019B0126484D2B6843
:1009E800D9051BD5A368434D012B27D12B6F43F0A5
:1009F80001032B67FFF7BEFD3E4D074641F28838DD
:100A08002B6F9B0739D5002E3FF420AF394A136C62
:100A180023F08053136419E70026DFE72B6843F4BB
:100A280080732B60FFF7A6FD07462B68DA05D9D43B
:100A3800FFF7A0FDC01B0228F7D938E7052B04D122
:100A48002B6F43F004032B67D0E72A6F22F00102D3
:100A58002A672A6F22F004022A67002BCAD1FFF7FF
:100A680089FD41F2883807462B6F9807CBD5FFF7E9
:100A780081FDC01B4045F7D919E7FFF77BFDC01B77
:100A88004045BDD913E71B4DAB6803F00C03082B99
:100A98003FF4CAAE1B4E0023022A336034D1FFF75D
:100AA80069FD07462B6899011ED4226AE36913433E
:100AB800626A43EA8213E26A43EA0263A26A0D4C5D
:100AC8005208013A43EA02436B6001233360FFF79F
:100AD80051FD054623689A013FF5BCAEFFF74AFD74
:100AE800401B0228F6D9E2E6FFF744FDC01B0228A6
:100AF800D8D9DCE60038024000004742800E474261
:100B08000070004060004742FFF734FD04462B6840
:100B18009B017FF59FAEFFF72DFD001B0228F6D93C
:100B2800C5E600BF134908B58B6803F00C03042B16
:100B380003D0082B03D0104808BD104808BD4A68E8
:100B48004B68496813F4800314BF0C480A48C1F382
:100B5800881118BF002302F03F02A1FB0001FFF734
:100B680037FB044B5B68C3F3014301335B00B0FB05
:100B7800F3F008BD003802400024F40000127A00A7
:100B88002DE9F0410D46044610B90120BDE8F08179
:100B9800444B1A6802F00F028A4228D321688F0753
:100BA8002DD4C80740D43F4B1A6802F00F02954273
:100BB80066D3226851076CD4130707D53A4A2169CE
:100BC800936823F4604343EAC1039360FFF7AAFFE5
:100BD800354B364A9B68C3F30313D35CD840344B78
:100BE80018600020FFF77CFC0020BDE8F081CAB245
:100BF8001A701B6803F00F039942C6D1CEE72A4B3F
:100C080011F0040F1EBF9A6842F4E0529A600E0772
:100C180042BF9A6842F460429A609A68A06822F0DB
:100C2800F00202439A60BCE762681F4B012A1DD19B
:100C38001B6813F4003FA8D01B4EB36823F00303CE
:100C48001343B360FFF796FC41F288380746B36850
:100C5800626803F00C03B3EB820FA4D0FFF78AFCA1
:100C6800C01B4045F3D90320BDE8F081911E01293E
:100C78001B6802D813F0007FDDE713F0020FDAE7F4
:100C8800EAB21A701B6803F00F039D427FF47DAF30
:100C98008FE70549E0688B6823F4E05303438B60D2
:100CA8008AE700BF003C0240003802403E200008AE
:100CB80008000020F8B504460E4615461F46216870
:100CC8008A6836EA020301D00020F8BD6B1CF7D011
:100CD800FFF750FCC01B8542F1D823685A6822F000
:100CE800E0025A606268B2F5827F0AD1A268B2F562
:100CF800004F02D0B2F5806F03D11A6822F040028B
:100D08001A60A26AB2F5005F07D11A6822F400528D
:100D18001A601A6842F400521A60012384F85130AC
:100D2800002384F850300320F8BD000073B5134643
:100D3800134A144E15684268B5FBF6F64FF47A75F7
:100D48007543B2F5827F044601950DD10A4680218C
:100D5800FFF7B0FF10B9002002B070BD636D43F01B
:100D6800200363650320F7E7019B002BF3D0019B69
:100D7800013B019323689B681B06F5D4EBE700BF92
:100D88000800002000366E0110B50446002836D051
:100D98000023836290F8513003F0FF021BB980F8FA
:100DA800502000F093FF2168A068A269022384F80C
:100DB80051300B6823F040030B6063680343E0681D
:100DC80003432069034360690343E0690343206ADE
:100DD8000343A06A034302F4007003430B60120C40
:100DE800636A02F004021A434A60CB6923F4006381
:100DF800CB6100200123606584F8513010BD0120CB
:100E080010BD2DE9F3411E4690F85030012B0446E1
:100E18000D46904600F09B80012380F85030FFF784
:100E2800A9FB074694F85100C0B2012840F08D8014
:100E3800002D5DD0B8F1000F5AD0032384F851304B
:100E48000020A3686065A063A4F83680A087E087C7
:100E58006064206420682563B3F5004F08BF036809
:100E6800A4F8348004BF43F48043036003685B063E
:100E78005EBF036843F040030360E368B3F5006FA7
:100E880063683ED113B1B8F1010F07D135F8023BC1
:100E9800C3602563E38E013B9BB2E386E38E9BB27E
:100EA800A3B93A4631462046FFF740FF002849D10A
:100EB800A36833B901932368DA6801929B680193A8
:100EC800019B606D003018BF012011E02268936813
:100ED800980705D5236B33F8021BD1602363D9E744
:100EE800FFF748FBC01BB042D8D3711CD6D00320F3
:100EF800012384F85130002384F8503002B0BDE853
:100F0800F08113B1B8F1010F08D12B780373236B6B
:100F180001332363E38E013B9BB2E386E38E9BB2EE
:100F2800002BBED023689A68920703D5226B1278EB
:100F38001A73ECE7FFF71EFBC01B8642EED8731C42
:100F4800ECD0D4E720236365B2E70220D0E7022083
:100F5800D4E7022380F83D3003689A6802F007025C
:100F6800062A1EBF1A6842F001021A60012380F89F
:100F78003D30002070470368DA6842F00102DA6009
:100F88009A6802F00702062A1EBF1A6842F0010298
:100F98001A600020704770477047704770470368B1
:100FA8001A69910710B504460ED5DA6892070BD571
:100FB8006FF002021A619B6901229B07027777D0C2
:100FC800FFF7EAFF0023237723681A69500710D533
:100FD800DA6851070DD56FF004021A619B69022285
:100FE80013F4407F2277204668D0FFF7D5FF00230F
:100FF800237723681A6912070FD5DA6810070CD50A
:101008006FF008021A61DB690422990722772046EB
:101018005AD0FFF7C1FF0023237723681A69D20645
:1010280010D5DA68D0060DD56FF010021A61DB69A9
:10103800082213F4407F227720464BD0FFF7ACFFFD
:101048000023237723681A69D10708D5DA68D207FD
:1010580005D56FF001021A61204600F00FFB2368E6
:101068001A69100608D5DA68110605D56FF08002EE
:101078001A61204600F0ECF923681A69520608D56F
:10108800DA68500605D56FF040021A612046FFF76E
:1010980085FF23681A69910622D5DA6892061FD55A
:1010A8006FF0200220461A61BDE8104000F0CFB969
:1010B800FFF771FF2046FFF770FF83E7FFF76BFF2D
:1010C8002046FFF76AFF92E7FFF765FF2046FFF724
:1010D80064FFA0E7FFF75FFF2046FFF75EFFAFE77B
:1010E80010BD0000304A0368904212D0B0F1804F22
:1010F8000FD0A2F57C4290420BD002F5806290425C
:1011080007D002F58062904203D002F578429042FF
:1011180019D14A6823F070031343234A904229D017
:10112800B0F1804F26D0A2F57C42904222D002F541
:10113800806290421ED002F5806290421AD002F579
:101148007842904216D0194A904213D002F5806234
:1011580090420FD002F5806290420BD0A2F59832EF
:10116800904207D002F58062904203D002F5806277
:10117800904203D1CA6823F4407313434A6923F0A9
:101188008003134303608B68C3620B688362064B5A
:10119800984203D003F58063984201D10B69036339
:1011A80001234361704700BF000001400040014037
:1011B80010B50446A0B190F83D3003F0FF021BB90A
:1011C80080F83C2000F082FE022384F83D3020683D
:1011D800211DFFF787FF012384F83D30002010BD53
:1011E800012010BD10B584680A4324F47F4442EA04
:1011F80003232343836010BD90F83C30012B70B566
:1012080004464FF0020019D084F83D0020680123FD
:1012180084F83C30836823F47F4323F077038360AA
:101228000B68402B65D015D8102B0CD007D853B1BC
:101238000123002084F83D3084F83C0070BD202B49
:1012480001D0302BF4D1826843F0070322F07002FA
:1012580013431AE0602B34D019D8502BE8D14A68D0
:10126800CE68016A056A25F001050562836921F0E7
:101278000A0123F0F00343EA06130A43836102627A
:10128800836823F0700343F057038360D0E7702B23
:101298000CD0B3F5005FCBD1CB684A688968FFF7FB
:1012A800A1FF2268936843F4804308E0CB684A684A
:1012B8008968FFF797FF2268936843F07703936084
:1012C800B6E74D68CE68016A21F0100101628269B3
:1012D800036A22F4704223F0A00343EA051342EAAA
:1012E800063282610362836823F0700343F0670368
:1012F800CBE74A68CE68016A056A25F001050562F0
:10130800836921F00A0123F0F00343EA06130A4334
:1013180083610262836823F0700343F04703B4E7F4
:1013280000684A6838B583680C6823F07003134373
:1013380023F007032343502A83601ED003D8402A92
:101348000BD0002038BD602A27D0702AF9D10B694C
:101358008A68C968FFF746FFF3E7052C30D0026AB0
:10136800036A096923F001030362836923F0F00328
:1013780043EA011383610262E3E78A680D69016A3F
:10138800046A24F001040462836921F00A0123F04D
:10139800F00343EA05130A43ECE78C680D69016A18
:1013A80021F0100101628269036A22F4704223F07D
:1013B800A00342EA053243EA041382610362C0E7EC
:1013C800012038BD38B590F83C30012B04464FF069
:1013D80002031CD0012580F83C5080F83D30FFF70F
:1013E8009FFF30B1002384F83D5084F83C302846F4
:1013F80038BD2368DA6822F04002DA60DA6822F43D
:101408008042DA6084F83D5084F83C0038BD1846C4
:1014180038BD90F83C30012B30B54FF0020314D0A2
:10142800046880F83D306268A3680D68496822F056
:10143800700223F080030B432A436260A3600123F8
:1014480080F83D30002380F83C30184630BD7047A6
:10145800704700002DE9F0418CB01422002107A844
:1014680000F0D0FD0024484B01941A6BDFF8288166
:10147800464E474F42F010021A631A6B02F01002F0
:101488000192019A02941A6B42F080021A631A6B55
:1014980002F080020292029A03941A6B42F004024C
:1014A8001A631A6B02F004020392039A04941A6BEB
:1014B80042F002021A631A6B02F002020492049AC2
:1014C80005941A6B42F008021A631A6B02F00802BC
:1014D8000592059A06941A6B42F001021A631B6B77
:1014E80003F001030693404601220321069BFFF700
:1014F80091F9304601224FF48061FFF78BF92246BB
:1015080038464FF40071FFF785F90125032307A931
:1015180040460793089509940A94FFF79BF84FF4FF
:101528000063079307A902231A48089309940A94A9
:101538000B95FFF78FF84FF4806307A930460793A0
:10154800089509940A94FFF785F84FF4007307A9E2
:1015580038460793089509940A94FFF77BF84FF4E7
:10156800805307A93846079308940994FFF772F83F
:101578007F2307A93046079308940994FFF76AF870
:101588000CB0BDE8F08100BF00380240000C0240FA
:1015980000000240001002400008024030B595B03B
:1015A8003022002108A800F02DFD0021142203A8F4
:1015B80000F028FD00241A4B01941A6C42F0805266
:1015C8001A641B6C03F080530193019B154B029422
:1015D8001A6842F480421A601B680F9403F480432F
:1015E8000293029B01230B9310230C93082310935F
:1015F80032230225119308A80423139308950E9506
:101608001295FFF70DF90F2303932146802303A8B2
:101618000495059306940794FFF7B2FA15B030BD08
:10162800003802400070004008B5FEF77DFFFFF764
:10163800B5FFFFF70FFF00F025FB00F0E5FB00F01A
:1016480019FC00F0A5F80948094D0A4CFFF793FC6E
:101658000948FFF77EFC284600F03FF8208818B1BB
:10166800082100F021FAF6E70146FAE7C800002051
:10167800A0860100280000208800002038B5114B02
:1016880002681B689A421CD10F4B104C1A68536AA7
:1016980000259BB25562C3EB03130D4A9B001380D0
:1016A80022783AB94FF480610A48FFF7B3F801236A
:1016B800237038BD01224FF480610648FFF7AAF86D
:1016C800257038BDC8000020880000202A000020AE
:1016D80028000020000C024070470023834200DBF2
:1016E800704700BF0133F9E72DE9F041274C86B078
:1016F800002203212046FFF78DF84FF47A70FFF798
:10170800ECFF204601220321FFF784F8A4F580644A
:101718001422002101A800F075FC012220464FF494
:101728000051FFF777F84FF40055002601A94FF054
:101738000108032720460195CDF8088003960497F1
:10174800FEF788FF4FF47A70FFF7C7FF3246294645
:101758002046FFF75FF84FF4FA70FFF7BEFF4246E6
:1017680029462046FFF756F80223029301A90523CC
:1017780020460593019503960497FEF76BFF4FF4F7
:101788007A70FFF7AAFF06B0BDE8F08100080240B2
:101798002DE9F04186B01422002101A800F032FCA6
:1017A80000220821BD48FFF735F800240125082745
:1017B8004FF0030801A9B948039401970295CDF8A1
:1017C8001080FEF747FF22464FF40051B448FFF758
:1017D80021F84FF4005601A9B148039401960295E7
:1017E800CDF81080FEF736FF2A464FF40071AD4859
:1017F800FFF710F84FF4FA60FFF76FFF22464FF437
:101808000071A848FFF706F84FF4FA70FFF765FF74
:101818002A463946A148FEF7FDFF4FF4FA70FFF754
:101828005CFF2A4631469E48FEF7F4FF4FF4FA70F3
:10183800FFF753FF224631469948FEF7EBFF4FF476
:10184800FA70FFF74AFF2A4631469548FEF7E2FF4D
:101858004FF4FA70FFF741FF224639468F48FEF7EA
:10186800D9FF0B24FFF740FF013CFBD101220821DF
:101878008A48FEF7CFFF4FF4FA70FFF72EFF0122D8
:101888004FF400718748FEF7C5FF40F2DC50FFF7C0
:1018980024FF22464FF400718248FEF7BBFF4FF445
:1018A800FA70FFF71AFFFFF71FFF224608217B484F
:1018B800FEF7B0FF0824FFF717FF013CFBD1012218
:1018C80008217648FEF7A6FFFFF70EFF22460821FB
:1018D8007248FEF79FFFFFF707FFFFF705FF01229A
:1018E80008216E48FEF796FF4FF47A70FFF7F5FE71
:1018F80001224FF400716B48FEF78CFF40F2DC5078
:10190800FFF7EBFE22464FF400716648FEF782FFB0
:10191800FFF7EAFE224608216048FEF77BFF09240C
:10192800FFF7E2FE013CFBD1012208215B48FEF7EC
:1019380071FFFFF7D9FE224608215848FEF76AFFD3
:10194800FFF7D2FE012208215448FEF763FF012267
:101958004FF400715348FEF75DFF40F2DC50FFF78B
:10196800BCFE22464FF400714E48FEF753FFFFF7C6
:10197800BBFE224608214948FEF74CFF0824FFF722
:10198800B3FE013CFBD1012208214448FEF742FF87
:10199800FFF7AAFEFFF7A8FE224608213F48FEF7F8
:1019A80039FFFFF7A1FE012208213C48FEF732FF6C
:1019B8004FF47A70FFF791FE01224FF40071394815
:1019C800FEF728FF40F2DC50FFF787FE22464FF46F
:1019D80000713448FEF71EFFFFF786FE22460821F5
:1019E8002E48FEF717FFFFF77FFEFFF77DFEFFF794
:1019F8007BFEFFF779FE012208212848FEF70AFF3F
:101A0800FFF772FE224608212448FEF703FFFFF77E
:101A18006BFE012208212148FEF7FCFEFFF764FE59
:101A2800224608211D48FEF7F5FEFFF75DFEFFF789
:101A38005BFE012208211948FEF7ECFEFFF754FE71
:101A4800224608211548FEF7E5FEFFF74DFE012264
:101A580008211248FEF7DEFE01224FF400711148FA
:101A6800FEF7D8FE022708230326052501A90B48FF
:101A780001930297039404960595FEF7EBFD4FF446
:101A8800005301A90648019302970394049605950B
:101A9800FEF7E0FD06B0BDE8F08100BF0008024097
:101AA800000402400000024042F21073B0FBF3F25F
:101AB80002FB13032DE9F04F9BB24FF47A74B3FB8A
:101AC800F4F004FB103364229BB241F01005B3FB21
:101AD800F2F102FB1133674E0A22C9B2C0B29BB2BF
:101AE800B3FBF2F3DBB216F8019016F80380375C0B
:101AF800614E89B000224FF400713046FEF78AFE2D
:101B0800C820FFF7EAFDA02302A88DF808308DF859
:101B18000970FEF755FB594F4FF0FF3382B202A907
:101B28003846FFF76EF9FFF7DFFD01224FF4007129
:101B38003046FEF76FFE2046FFF7CFFD00224FF438
:101B480000713046FEF766FEC820FFF7C6FDA123E8
:101B580002A88DF808308DF80990FEF731FB4FF098
:101B6800FF3382B202A93846FFF74BF9FFF7BCFDF5
:101B780001224FF400713046FEF74CFE2046FFF775
:101B8800ACFD00224FF400713046FEF743FEC8203A
:101B9800FFF7A3FDA22302A88DF808308DF809806D
:101BA800FEF70EFB4FF0FF3382B202A93846FFF76B
:101BB80028F9DFF8CC902046FFF78FFD142200218A
:101BC80003A800F01FFA002248460821FEF722FE6B
:101BD8004FF0010808234FF0000A03A948464FF0C8
:101BE800030B03930193CDF81080CDF814A0CDF822
:101BF80018B0FEF72FFDFFF777FD42464FF400714E
:101C08003046FEF707FE2046FFF767FD524630468E
:101C18004FF40071FEF7FEFD019B0393022303A915
:101C28000493484605230793CDF814A0CDF818B0BF
:101C3800FEF710FDC820FFF750FDA32302A88DF87A
:101C480008308DF80950FEF7BBFA4FF0FF3382B227
:101C580002A93846FFF7D5F8FFF746FD42464FF48C
:101C680000713046FEF7D6FD2046FFF736FD09B075
:101C7800BDE8F08F3420000800000240300000204A
:101C8800000802400F4808B502220F4B02614FF4CA
:101C9800827E012280E80840426100234FF40072EE
:101CA8008360C360826103623822436283620A23CD
:101CB800C261C362FFF768F818B1BDE80840FFF7D2
:101CC8000BBD08BD3000002000380040F0B50446C8
:101CD80089B01422002103A800F094F922681E4B51
:101CE8009A4237D103F50033002400941A6C1B483C
:101CF80042F480421A641A6C02F480420092009AFC
:101D080001941A6B42F004021A631A6B02F004027F
:101D18000192019A02941A6B42F002021A631B6B39
:101D280003F002030293029B0227082303260525DA
:101D380003A90393049706960795FEF78BFC4FF4C7
:101D4800005303A90648039304970594069607953C
:101D5800FEF780FC09B0F0BD0038004000080240E2
:101D68000004024082B00C4B002100915A6C42F4EE
:101D780080425A645A6C02F480420092009A01919F
:101D88001A6C42F080521A641B6C03F08053019362
:101D9800019B02B0704700BF003802407047FEE761
:101DA800FEE7FEE7FEE7704770477047FEF7D6BBD1
:101DB8000148FFF7F4B800BFC80000200F49D1F868
:101DC800883043F47003C1F888300D4B1A6800203E
:101DD80042F001021A6098601A6822F0847222F4B4
:101DE80080321A60074A5A601A6822F480221A6000
:101DF800D8604FF000638B60704700BF00ED00E0D3
:101E080000380240103000247FB51022002102A8BB
:101E180000F0F8F8154800234FF0804280E80C00E5
:101E2800009301938360124A03618023C260836137
:101E3800FFF7BEF908B1FFF74FFC4FF4805302A932
:101E48000A480293FFF7D8F908B1FFF745FC1022BA
:101E58000023694605488DE80C00FFF7DAFA08B157
:101E6800FFF73AFC07B05DF804FB00BFC80000208C
:101E780040787D017FB51422002101A800F0C2F846
:101E88001048114B03600023436083604FF6E8520B
:101E980003618023C2608361FFF78AF908B1FFF705
:101EA8001BFC072301935023029301A90023054833
:101EB80003930593FFF786FA08B1FFF70DFC07B007
:101EC8005DF804FB880000200040014010B504467E
:101ED80088B01422002103A800F094F82368B3F115
:101EE800804F15D1002203F50E330092196C41F092
:101EF800010119641B6C03F0010300931C201146B7
:101F0800009BFEF74FFB1C20FEF780FB08B010BDBE
:101F1800124A9342FAD1124B1248002101915A6C8D
:101F280042F480325A645A6C02F480320192019A67
:101F380002911A6B42F010021A631B6B03F0100334
:101F48000293029B20230393022304930123059306
:101F580003A903230793FEF77DFBD7E70040014061
:101F68000038024000100240DFF834D0002103E0BE
:101F78000C4B5B58435004310B480C4B42189A42A7
:101F8800F6D30B4A02E0002342F8043B094B9A427D
:101F9800F9D3FFF713FF00F011F8FFF745FB70477F
:101FA8000000022060200008000000200C00002033
:101FB8000C00002008010020FEE7000070B50D4E5F
:101FC8000D4CA41BA4100025A54209D10B4E0C4CA6
:101FD80000F020F8A41BA4100025A54205D170BD6F
:101FE80056F8253098470135EEE756F825309847DA
:101FF8000135F2E75820000858200008582000084A
:102008005C20000802440346934200D1704703F85D
:10201800011BF9E7F8B500BFF8BC08BC9E4670473D
:0C202800F8B500BFF8BC08BC9E4670472D
:102034007D056B4F175E7E0D7F5F00000000000082
:0C20440000000102030406070809000068
:08205000B8E1FF7F0100000070
:04205800AD010008CE
:04205C0089010008EE
:0C20600001000000100000000024F4004B
:0400000508001F715F
:00000001FF
